:100000000C942A000C9434000C9434000C943400AA
:100010000C9434000C9434000C9434000C94340090
:100020000C9434000C9434000C9434000C94340080
:100030000C9434000C9434000C9434000C94340070
:100040000C9434000C9434000C9434000C94340060
:100050000C94340011241FBECFE5D4E0DEBFCDBF29
:100060000E9436000C94C2000C9400008AB3807E7B
:100070008ABB87B38FEF87BB94B384BB8BB38F618D
:100080008BBB88B318BA85B315BA40E030E051E0B5
:10009000C8990EC083ED90E30197F1F700C000000E
:1000A000C89903C0373009F03F5FC89BFECF5AC0E4
:1000B000C9990DC083ED90E30197F1F700C00000EE
:1000C000C99902C031113150C99BFECF4BC0CA99AA
:1000D0000EC083ED90E30197F1F700C00000CA99CC
:1000E00003C0493009F04F5FCA9BFECF3BC0CB999C
:1000F0000DC083ED90E30197F1F700C00000CB99AC
:1001000002C041114150CB9BFECF2CC0CC992AC0DC
:1001100083ED90E30197F1F700C00000CC9920C077
:10012000E42FF0E0EE0FFF1F1E161F06CCF4252F64
:10013000032E01C0220F0A94EAF790E088B38227C9
:1001400088BB6FE976E881E0615070408040E1F75C
:1001500000C000009F5F692F70E06E177F0774F387
:10016000CC9BFECF85B3807F932F9F70892B85BB5F
:1001700085B3282F2F7060E1469FC0011124822B88
:0801800085BB86CFF894FFCF88
:00000001FF
